:100000000C9434000C9446000C9446000C9446006A
:100010000C9446000C9446000C9446000C94460048
:100020000C9446000C9446000C9446000C94460038
:100030000C9446000C9446000C9446000C94460028
:100040000C9460000C9446000C9446000C944600FE
:100050000C9446000C9446000C9446000C94460008
:100060000C9446000C94460011241FBECFEFD8E03C
:10007000DEBFCDBF21E0A0E0B1E001C01D92A730FE
:10008000B207E1F70E94A3000C94F0000C9400006A
:100090001AB8579A5F985A985B98089514BC15BC83
:1000A00085B58B7F85BD85B58D7F85BD85B5816027
:1000B00085BDEEE6F0E01082808181608083089546
:1000C0001F920F920FB60F9211242F938F939F932D
:1000D000AF93BF935F9B13C0809103019091040184
:1000E000A0910501B09106010196A11DB11D80935B
:1000F000030190930401A0930501B0930601809140
:10010000030190910401A0910501B0910601853B86
:10011000944CA440B10568F08091020181111092C5
:100120000201109203011092040110920501109235
:100130000601BF91AF919F918F912F910F900FBEAC
:100140000F901F9018950E9448000E944E007894CE
:1001500081E04A9B14C090910101911112C08093DB
:100160000101909102019F5F90930201109203019F
:1001700010920401109205011092060102C0109223
:1001800001014B9B03C08093000117C090910001B7
:10019000913099F41092000190910201992329F075
:1001A00090910201915090930201109203011092DC
:1001B0000401109205011092060120910201309174
:1001C0000001982F211101C090E0992339F0982F58
:1001D000311190E0992311F05F9ABBCF5F98B9CFAE
:0401E000F894FFCFC1
:00000001FF
